{
  "contractName": "Counter",
  "abi": [
    {
      "inputs": [],
      "payable": false,
      "stateMutability": "nonpayable",
      "type": "constructor"
    },
    {
      "constant": true,
      "inputs": [],
      "name": "val",
      "outputs": [
        {
          "name": "",
          "type": "uint256"
        }
      ],
      "payable": false,
      "stateMutability": "view",
      "type": "function"
    }
  ],
  "bytecode": "0x60606040523415600e57600080fd5b60008081905550609f806100236000396000f300606060405260043610603f576000357c0100000000000000000000000000000000000000000000000000000000900463ffffffff1680633c6bb436146044575b600080fd5b3415604e57600080fd5b6054606a565b6040518082815260200191505060405180910390f35b600080549050905600a165627a7a72305820402365b2a0ba00b539abbdb00384052fbf711f37761eff4f3f26de644af3e7a00029",
  "source": "pragma solidity ^0.4.4;\n\ncontract Counter{\n   uint serial ;\n   function Counter() public {\n       serial = 0;\n   }\n   function val() public view returns(uint){\n       return serial;\n   }  \n}\n\ncontract SellArt is Counter {\n\n  struct  Art {\n    uint id;\n    address artist;\n    string  name;\n    string  author;\n    uint    price;  \n    string  imageUrl;\n    bool sold;\n  }\n\n  address owner;  \n   mapping (uint =>  Art)  public artworks;\n \n  function SellArt() public {\n    owner = msg.sender;\n  }\n\n  function addArt(address _artist,string _name,string _author,string _imageUrl, uint _price) public  returns (bool)  {\n    serial++;\n    Art memory a =  Art (serial,_artist,_name, _author ,_price, _imageUrl,false);  \n    artworks[serial] = a;  \n    return true;\n  }\n\n  function updateArt(uint id, address _artist,string _name,string _author,string _imageUrl, uint _price) public  {\n    Art storage di = artworks[id];\n    di.artist = _artist;\n    di.name = _name;\n    di.author = _author;\n    di.price = _price;\n    di.imageUrl = _imageUrl;\n  }\n\n  function getArtWorkCount() public constant returns(uint count) {\n    return serial;\n  }\n\n  function getOwner() public view returns (address)  {\n    return owner;\n  }\n\n\n  function getArtWork(uint pos) public view returns ( uint id, address artist, string name, string author, uint price, string imageUrl, bool sold) {\n    Art memory di = artworks[pos];\n    return (di.id,di.artist, di.name, di.author,di.price,di.imageUrl,di.sold);\n  }\n  \n\n  function purchasesArt(uint id) public payable  {\n\n    Art storage a = artworks[id];\n   \n\n    a.artist.transfer(a.price);\n    a.sold=true;\n  }\n}\n",
  "sourcePath": "/home/angel/art-gallery/server/contracts/SellArt.sol",
  "compiler": {
    "name": "solc",
    "version": "0.4.19+commit.c4cbbb05.Emscripten.clang"
  },
  "schemaVersion": "2.0.0",
  "updatedAt": "2018-03-15T19:11:21.332Z"
}