{
  "contractName": "Factory",
  "abi": [
    {
      "constant": true,
      "inputs": [
        {
          "name": "",
          "type": "address"
        }
      ],
      "name": "contracts",
      "outputs": [
        {
          "name": "key",
          "type": "string"
        },
        {
          "name": "storeContract",
          "type": "address"
        }
      ],
      "payable": false,
      "stateMutability": "view",
      "type": "function"
    },
    {
      "constant": true,
      "inputs": [],
      "name": "owner",
      "outputs": [
        {
          "name": "",
          "type": "address"
        }
      ],
      "payable": false,
      "stateMutability": "view",
      "type": "function"
    },
    {
      "constant": false,
      "inputs": [
        {
          "name": "newOwner",
          "type": "address"
        }
      ],
      "name": "transferOwnership",
      "outputs": [],
      "payable": false,
      "stateMutability": "nonpayable",
      "type": "function"
    },
    {
      "constant": false,
      "inputs": [
        {
          "name": "_owner",
          "type": "address"
        },
        {
          "name": "key",
          "type": "string"
        }
      ],
      "name": "createContract",
      "outputs": [],
      "payable": false,
      "stateMutability": "nonpayable",
      "type": "function"
    },
    {
      "constant": true,
      "inputs": [
        {
          "name": "_owner",
          "type": "address"
        }
      ],
      "name": "getContract",
      "outputs": [
        {
          "name": "",
          "type": "string"
        },
        {
          "name": "",
          "type": "address"
        }
      ],
      "payable": false,
      "stateMutability": "view",
      "type": "function"
    }
  ],
  "bytecode": "0x6060604052336000806101000a81548173ffffffffffffffffffffffffffffffffffffffff021916908373ffffffffffffffffffffffffffffffffffffffff160217905550611a91806100536000396000f30060606040526004361061006d576000357c0100000000000000000000000000000000000000000000000000000000900463ffffffff1680630ad1c2fa14610072578063375d52341461015757806369dc9ff3146101d35780638da5cb5b146102d5578063f2fde38b1461032a575b600080fd5b341561007d57600080fd5b6100a9600480803573ffffffffffffffffffffffffffffffffffffffff16906020019091905050610363565b60405180806020018373ffffffffffffffffffffffffffffffffffffffff1673ffffffffffffffffffffffffffffffffffffffff168152602001828103825284818151815260200191508051906020019080838360005b8381101561011b578082015181840152602081019050610100565b50505050905090810190601f1680156101485780820380516001836020036101000a031916815260200191505b50935050505060405180910390f35b341561016257600080fd5b6101d1600480803573ffffffffffffffffffffffffffffffffffffffff1690602001909190803590602001908201803590602001908080601f016020809104026020016040519081016040528093929190818152602001838380828437820191505050505050919050506104d0565b005b34156101de57600080fd5b61020a600480803573ffffffffffffffffffffffffffffffffffffffff16906020019091905050610682565b60405180806020018373ffffffffffffffffffffffffffffffffffffffff1673ffffffffffffffffffffffffffffffffffffffff1681526020018281038252848181546001816001161561010002031660029004815260200191508054600181600116156101000203166002900480156102c55780601f1061029a576101008083540402835291602001916102c5565b820191906000526020600020905b8154815290600101906020018083116102a857829003601f168201915b5050935050505060405180910390f35b34156102e057600080fd5b6102e86106c5565b604051808273ffffffffffffffffffffffffffffffffffffffff1673ffffffffffffffffffffffffffffffffffffffff16815260200191505060405180910390f35b341561033557600080fd5b610361600480803573ffffffffffffffffffffffffffffffffffffffff169060200190919050506106ea565b005b61036b6107bc565b60006103756107d0565b600160008573ffffffffffffffffffffffffffffffffffffffff1673ffffffffffffffffffffffffffffffffffffffff168152602001908152602001600020604080519081016040529081600082018054600181600116156101000203166002900480601f0160208091040260200160405190810160405280929190818152602001828054600181600116156101000203166002900480156104585780601f1061042d57610100808354040283529160200191610458565b820191906000526020600020905b81548152906001019060200180831161043b57829003601f168201915b505050505081526020016001820160009054906101000a900473ffffffffffffffffffffffffffffffffffffffff1673ffffffffffffffffffffffffffffffffffffffff1673ffffffffffffffffffffffffffffffffffffffff16815250509050806000015181602001518191509250925050915091565b60006104da6107d0565b6104e2610806565b604051809103906000f08015156104f857600080fd5b91508173ffffffffffffffffffffffffffffffffffffffff1663f2fde38b856040518263ffffffff167c0100000000000000000000000000000000000000000000000000000000028152600401808273ffffffffffffffffffffffffffffffffffffffff1673ffffffffffffffffffffffffffffffffffffffff168152602001915050600060405180830381600087803b151561059457600080fd5b6102c65a03f115156105a557600080fd5b50505060408051908101604052808481526020018373ffffffffffffffffffffffffffffffffffffffff16815250905080600160008673ffffffffffffffffffffffffffffffffffffffff1673ffffffffffffffffffffffffffffffffffffffff1681526020019081526020016000206000820151816000019080519060200190610631929190610816565b5060208201518160010160006101000a81548173ffffffffffffffffffffffffffffffffffffffff021916908373ffffffffffffffffffffffffffffffffffffffff16021790555090505050505050565b600160205280600052604060002060009150905080600001908060010160009054906101000a900473ffffffffffffffffffffffffffffffffffffffff16905082565b6000809054906101000a900473ffffffffffffffffffffffffffffffffffffffff1681565b6000809054906101000a900473ffffffffffffffffffffffffffffffffffffffff1673ffffffffffffffffffffffffffffffffffffffff163373ffffffffffffffffffffffffffffffffffffffff1614151561074257fe5b600073ffffffffffffffffffffffffffffffffffffffff168173ffffffffffffffffffffffffffffffffffffffff161415156107b957806000806101000a81548173ffffffffffffffffffffffffffffffffffffffff021916908373ffffffffffffffffffffffffffffffffffffffff1602179055505b50565b602060405190810160405280600081525090565b60408051908101604052806107e3610896565b8152602001600073ffffffffffffffffffffffffffffffffffffffff1681525090565b604051611196806108d083390190565b828054600181600116156101000203166002900490600052602060002090601f016020900481019282601f1061085757805160ff1916838001178555610885565b82800160010185558215610885579182015b82811115610884578251825591602001919060010190610869565b5b50905061089291906108aa565b5090565b602060405190810160405280600081525090565b6108cc91905b808211156108c85760008160009055506001016108b0565b5090565b90560060606040526000808190555033600160006101000a81548173ffffffffffffffffffffffffffffffffffffffff021916908373ffffffffffffffffffffffffffffffffffffffff16021790555061113b8061005b6000396000f3006060604052600436106100a4576000357c0100000000000000000000000000000000000000000000000000000000900463ffffffff1680633c6bb436146100a95780634b602673146100d2578063893d20e8146102e95780638c4796c71461033e5780638da5cb5b146104fe578063a3ba746214610553578063be0da33d14610676578063d5733b9a1461069f578063ebf8c9ee146107b3578063f2fde38b146107cb575b600080fd5b34156100b457600080fd5b6100bc610804565b6040518082815260200191505060405180910390f35b34156100dd57600080fd5b6100f3600480803590602001909190505061080d565b604051808881526020018773ffffffffffffffffffffffffffffffffffffffff1673ffffffffffffffffffffffffffffffffffffffff168152602001806020018060200186815260200180602001851515151581526020018481038452898181546001816001161561010002031660029004815260200191508054600181600116156101000203166002900480156101cc5780601f106101a1576101008083540402835291602001916101cc565b820191906000526020600020905b8154815290600101906020018083116101af57829003601f168201915b505084810383528881815460018160011615610100020316600290048152602001915080546001816001161561010002031660029004801561024f5780601f106102245761010080835404028352916020019161024f565b820191906000526020600020905b81548152906001019060200180831161023257829003601f168201915b50508481038252868181546001816001161561010002031660029004815260200191508054600181600116156101000203166002900480156102d25780601f106102a7576101008083540402835291602001916102d2565b820191906000526020600020905b8154815290600101906020018083116102b557829003601f168201915b50509a505050505050505050505060405180910390f35b34156102f457600080fd5b6102fc610879565b604051808273ffffffffffffffffffffffffffffffffffffffff1673ffffffffffffffffffffffffffffffffffffffff16815260200191505060405180910390f35b341561034957600080fd5b61035f60048080359060200190919050506108a3565b604051808881526020018773ffffffffffffffffffffffffffffffffffffffff1673ffffffffffffffffffffffffffffffffffffffff16815260200180602001806020018681526020018060200185151515158152602001848103845289818151815260200191508051906020019080838360005b838110156103ef5780820151818401526020810190506103d4565b50505050905090810190601f16801561041c5780820380516001836020036101000a031916815260200191505b50848103835288818151815260200191508051906020019080838360005b8381101561045557808201518184015260208101905061043a565b50505050905090810190601f1680156104825780820380516001836020036101000a031916815260200191505b50848103825286818151815260200191508051906020019080838360005b838110156104bb5780820151818401526020810190506104a0565b50505050905090810190601f1680156104e85780820380516001836020036101000a031916815260200191505b509a505050505050505050505060405180910390f35b341561050957600080fd5b610511610b9c565b604051808273ffffffffffffffffffffffffffffffffffffffff1673ffffffffffffffffffffffffffffffffffffffff16815260200191505060405180910390f35b341561055e57600080fd5b61065c600480803573ffffffffffffffffffffffffffffffffffffffff1690602001909190803590602001908201803590602001908080601f0160208091040260200160405190810160405280939291908181526020018383808284378201915050505050509190803590602001908201803590602001908080601f0160208091040260200160405190810160405280939291908181526020018383808284378201915050505050509190803590602001908201803590602001908080601f01602080910402602001604051908101604052809392919081815260200183838082843782019150505050505091908035906020019091905050610bc2565b604051808215151515815260200191505060405180910390f35b341561068157600080fd5b610689610d26565b6040518082815260200191505060405180910390f35b34156106aa57600080fd5b6107b1600480803590602001909190803573ffffffffffffffffffffffffffffffffffffffff1690602001909190803590602001908201803590602001908080601f0160208091040260200160405190810160405280939291908181526020018383808284378201915050505050509190803590602001908201803590602001908080601f0160208091040260200160405190810160405280939291908181526020018383808284378201915050505050509190803590602001908201803590602001908080601f01602080910402602001604051908101604052809392919081815260200183838082843782019150505050505091908035906020019091905050610d2f565b005b6107c96004808035906020019091905050610de6565b005b34156107d657600080fd5b610802600480803573ffffffffffffffffffffffffffffffffffffffff16906020019091905050610e86565b005b60008054905090565b60026020528060005260406000206000915090508060000154908060010160009054906101000a900473ffffffffffffffffffffffffffffffffffffffff16908060020190806003019080600401549080600501908060060160009054906101000a900460ff16905087565b6000600160009054906101000a900473ffffffffffffffffffffffffffffffffffffffff16905090565b6000806108ae610f5a565b6108b6610f5a565b60006108c0610f5a565b60006108ca610f6e565b600260008a815260200190815260200160002060e06040519081016040529081600082015481526020016001820160009054906101000a900473ffffffffffffffffffffffffffffffffffffffff1673ffffffffffffffffffffffffffffffffffffffff1673ffffffffffffffffffffffffffffffffffffffff168152602001600282018054600181600116156101000203166002900480601f0160208091040260200160405190810160405280929190818152602001828054600181600116156101000203166002900480156109e25780601f106109b7576101008083540402835291602001916109e2565b820191906000526020600020905b8154815290600101906020018083116109c557829003601f168201915b50505050508152602001600382018054600181600116156101000203166002900480601f016020809104026020016040519081016040528092919081815260200182805460018160011615610100020316600290048015610a845780601f10610a5957610100808354040283529160200191610a84565b820191906000526020600020905b815481529060010190602001808311610a6757829003601f168201915b5050505050815260200160048201548152602001600582018054600181600116156101000203166002900480601f016020809104026020016040519081016040528092919081815260200182805460018160011615610100020316600290048015610b305780601f10610b0557610100808354040283529160200191610b30565b820191906000526020600020905b815481529060010190602001808311610b1357829003601f168201915b505050505081526020016006820160009054906101000a900460ff1615151515815250509050806000015181602001518260400151836060015184608001518560a001518660c00151849450839350819150975097509750975097509750975050919395979092949650565b600160009054906101000a900473ffffffffffffffffffffffffffffffffffffffff1681565b6000610bcc610f6e565b600080815480929190600101919050555060e06040519081016040528060005481526020018873ffffffffffffffffffffffffffffffffffffffff1681526020018781526020018681526020018481526020018581526020016000151581525090508060026000805481526020019081526020016000206000820151816000015560208201518160010160006101000a81548173ffffffffffffffffffffffffffffffffffffffff021916908373ffffffffffffffffffffffffffffffffffffffff1602179055506040820151816002019080519060200190610cb0929190610fd6565b506060820151816003019080519060200190610ccd929190610fd6565b506080820151816004015560a0820151816005019080519060200190610cf4929190610fd6565b5060c08201518160060160006101000a81548160ff021916908315150217905550905050600191505095945050505050565b60008054905090565b6000600260008881526020019081526020016000209050858160010160006101000a81548173ffffffffffffffffffffffffffffffffffffffff021916908373ffffffffffffffffffffffffffffffffffffffff16021790555084816002019080519060200190610da1929190611056565b5083816003019080519060200190610dba929190611056565b5081816004018190555082816005019080519060200190610ddc929190611056565b5050505050505050565b60006002600083815260200190815260200160002090508060010160009054906101000a900473ffffffffffffffffffffffffffffffffffffffff1673ffffffffffffffffffffffffffffffffffffffff166108fc82600401549081150290604051600060405180830381858888f193505050501515610e6557600080fd5b60018160060160006101000a81548160ff0219169083151502179055505050565b600160009054906101000a900473ffffffffffffffffffffffffffffffffffffffff1673ffffffffffffffffffffffffffffffffffffffff163373ffffffffffffffffffffffffffffffffffffffff16141515610edf57fe5b600073ffffffffffffffffffffffffffffffffffffffff168173ffffffffffffffffffffffffffffffffffffffff16141515610f575780600160006101000a81548173ffffffffffffffffffffffffffffffffffffffff021916908373ffffffffffffffffffffffffffffffffffffffff1602179055505b50565b602060405190810160405280600081525090565b60e06040519081016040528060008152602001600073ffffffffffffffffffffffffffffffffffffffff168152602001610fa66110d6565b8152602001610fb36110d6565b815260200160008152602001610fc76110d6565b81526020016000151581525090565b828054600181600116156101000203166002900490600052602060002090601f016020900481019282601f1061101757805160ff1916838001178555611045565b82800160010185558215611045579182015b82811115611044578251825591602001919060010190611029565b5b50905061105291906110ea565b5090565b828054600181600116156101000203166002900490600052602060002090601f016020900481019282601f1061109757805160ff19168380011785556110c5565b828001600101855582156110c5579182015b828111156110c45782518255916020019190600101906110a9565b5b5090506110d291906110ea565b5090565b602060405190810160405280600081525090565b61110c91905b808211156111085760008160009055506001016110f0565b5090565b905600a165627a7a72305820bd75be97983122f92a10287a5e01325bfb509509091dce234d3e25138cab92f20029a165627a7a72305820b127c3523545e2595111d3fa722fe01bdbc3303d744acfc009a3ca6cb356892d0029",
  "source": "pragma solidity ^0.4.4;\n\ncontract Counter{\n   uint serial ;\n   function Counter() public {\n       serial = 0;\n   }\n   function val() public view returns(uint){\n       return serial;\n   }  \n}\n\ncontract Owned {\n    address public owner;\n\n    function Owned() public {\n        owner = msg.sender;\n    }\n\n    modifier onlyOwner() {\n        assert(msg.sender == owner);\n        _;\n    }\n\n    function transferOwnership(address newOwner) external onlyOwner {\n        if (newOwner != address(0)) {\n            owner = newOwner;\n        }\n    }\n}\n\ncontract Store is Counter, Owned {\n\n  struct  Art {\n    uint id;\n    address owner;\n    string  name;\n    string  ownername;\n    uint    price;  \n    string  imageUrl;\n    bool sold;\n  }\n\n  mapping (uint =>  Art)  public artworks;\n \n  \n  function addArt(address _owner,string _name,string _ownername,string _imageUrl, uint _price) public  returns (bool)  {\n    serial++;\n    Art memory a =  Art (serial,_owner,_name, _ownername ,_price, _imageUrl,false);  \n    artworks[serial] = a;  \n    return true;\n  }\n\n  function updateArt(uint id, address _owner,string _name,string _ownername,string _imageUrl, uint _price) public  {\n    Art storage di = artworks[id];\n    di.owner = _owner;\n    di.name = _name;\n    di.ownername = _ownername;\n    di.price = _price;\n    di.imageUrl = _imageUrl;\n  }\n\n  function getArtCount() public constant returns(uint count) {\n    return serial;\n  }\n\n  function getOwner() public view returns (address)  {\n    return owner;\n  }\n\n\n  function getArt(uint pos) public view returns ( uint , address , string , string , uint price, string , bool ) {\n    Art memory di = artworks[pos];\n    return (di.id,di.owner, di.name, di.ownername,di.price,di.imageUrl,di.sold);\n  }\n  \n\n  function purchasesArt(uint id) public payable  {\n\n    Art storage a = artworks[id];\n   \n\n    a.owner.transfer(a.price);\n    a.sold=true;\n  }\n}\n\ncontract  Factory is Owned {\n \n  struct  StoresContract {\n     string key;\n     address storeContract;\n  }\n  \n  mapping (address =>  StoresContract)  public contracts;\n\n\n  function createContract (address _owner, string key) public {\n      Store storeContract = new Store();\n      storeContract.transferOwnership(_owner);\n      StoresContract memory c =  StoresContract (key,storeContract); \n      contracts[_owner] = c;\n  }\n\n  function getContract(address _owner) public view returns ( string , address )  {\n    StoresContract memory c = contracts[_owner];\n    return (c.key,c.storeContract);\n  }\n}\n",
  "sourcePath": "/home/angel/art-gallery/server/contracts/StoreCreator.sol",
  "compiler": {
    "name": "solc",
    "version": "0.4.19+commit.c4cbbb05.Emscripten.clang"
  },
  "schemaVersion": "2.0.0",
  "updatedAt": "2018-03-17T22:10:29.950Z"
}