{
  "contractName": "SellArt",
  "abi": [
    {
      "constant": true,
      "inputs": [],
      "name": "val",
      "outputs": [
        {
          "name": "",
          "type": "uint256"
        }
      ],
      "payable": false,
      "stateMutability": "view",
      "type": "function"
    },
    {
      "constant": true,
      "inputs": [
        {
          "name": "",
          "type": "uint256"
        }
      ],
      "name": "artworks",
      "outputs": [
        {
          "name": "id",
          "type": "uint256"
        },
        {
          "name": "artist",
          "type": "address"
        },
        {
          "name": "name",
          "type": "string"
        },
        {
          "name": "author",
          "type": "string"
        },
        {
          "name": "price",
          "type": "uint256"
        },
        {
          "name": "imageUrl",
          "type": "string"
        },
        {
          "name": "sold",
          "type": "bool"
        }
      ],
      "payable": false,
      "stateMutability": "view",
      "type": "function"
    },
    {
      "inputs": [],
      "payable": false,
      "stateMutability": "nonpayable",
      "type": "constructor"
    },
    {
      "constant": false,
      "inputs": [
        {
          "name": "_artist",
          "type": "address"
        },
        {
          "name": "_name",
          "type": "string"
        },
        {
          "name": "_author",
          "type": "string"
        },
        {
          "name": "_imageUrl",
          "type": "string"
        },
        {
          "name": "_price",
          "type": "uint256"
        }
      ],
      "name": "addArt",
      "outputs": [
        {
          "name": "",
          "type": "bool"
        }
      ],
      "payable": false,
      "stateMutability": "nonpayable",
      "type": "function"
    },
    {
      "constant": false,
      "inputs": [
        {
          "name": "id",
          "type": "uint256"
        },
        {
          "name": "_artist",
          "type": "address"
        },
        {
          "name": "_name",
          "type": "string"
        },
        {
          "name": "_author",
          "type": "string"
        },
        {
          "name": "_imageUrl",
          "type": "string"
        },
        {
          "name": "_price",
          "type": "uint256"
        }
      ],
      "name": "updateArt",
      "outputs": [],
      "payable": false,
      "stateMutability": "nonpayable",
      "type": "function"
    },
    {
      "constant": true,
      "inputs": [],
      "name": "getArtWorkCount",
      "outputs": [
        {
          "name": "count",
          "type": "uint256"
        }
      ],
      "payable": false,
      "stateMutability": "view",
      "type": "function"
    },
    {
      "constant": true,
      "inputs": [],
      "name": "getOwner",
      "outputs": [
        {
          "name": "",
          "type": "address"
        }
      ],
      "payable": false,
      "stateMutability": "view",
      "type": "function"
    },
    {
      "constant": true,
      "inputs": [
        {
          "name": "pos",
          "type": "uint256"
        }
      ],
      "name": "getArtWork",
      "outputs": [
        {
          "name": "id",
          "type": "uint256"
        },
        {
          "name": "artist",
          "type": "address"
        },
        {
          "name": "name",
          "type": "string"
        },
        {
          "name": "author",
          "type": "string"
        },
        {
          "name": "price",
          "type": "uint256"
        },
        {
          "name": "imageUrl",
          "type": "string"
        },
        {
          "name": "sold",
          "type": "bool"
        }
      ],
      "payable": false,
      "stateMutability": "view",
      "type": "function"
    },
    {
      "constant": false,
      "inputs": [
        {
          "name": "id",
          "type": "uint256"
        }
      ],
      "name": "purchasesArt",
      "outputs": [],
      "payable": true,
      "stateMutability": "payable",
      "type": "function"
    }
  ],
  "bytecode": "0x6060604052341561000f57600080fd5b6000808190555033600160006101000a81548173ffffffffffffffffffffffffffffffffffffffff021916908373ffffffffffffffffffffffffffffffffffffffff160217905550610f9d806100666000396000f30060606040526004361061008e576000357c0100000000000000000000000000000000000000000000000000000000900463ffffffff1680633c6bb436146100935780634b602673146100bc578063539fc0d4146102d3578063893d20e8146102fc578063a3ba746214610351578063d5733b9a14610474578063ebf8c9ee14610588578063edd33831146105a0575b600080fd5b341561009e57600080fd5b6100a6610760565b6040518082815260200191505060405180910390f35b34156100c757600080fd5b6100dd6004808035906020019091905050610769565b604051808881526020018773ffffffffffffffffffffffffffffffffffffffff1673ffffffffffffffffffffffffffffffffffffffff168152602001806020018060200186815260200180602001851515151581526020018481038452898181546001816001161561010002031660029004815260200191508054600181600116156101000203166002900480156101b65780601f1061018b576101008083540402835291602001916101b6565b820191906000526020600020905b81548152906001019060200180831161019957829003601f168201915b50508481038352888181546001816001161561010002031660029004815260200191508054600181600116156101000203166002900480156102395780601f1061020e57610100808354040283529160200191610239565b820191906000526020600020905b81548152906001019060200180831161021c57829003601f168201915b50508481038252868181546001816001161561010002031660029004815260200191508054600181600116156101000203166002900480156102bc5780601f10610291576101008083540402835291602001916102bc565b820191906000526020600020905b81548152906001019060200180831161029f57829003601f168201915b50509a505050505050505050505060405180910390f35b34156102de57600080fd5b6102e66107d5565b6040518082815260200191505060405180910390f35b341561030757600080fd5b61030f6107de565b604051808273ffffffffffffffffffffffffffffffffffffffff1673ffffffffffffffffffffffffffffffffffffffff16815260200191505060405180910390f35b341561035c57600080fd5b61045a600480803573ffffffffffffffffffffffffffffffffffffffff1690602001909190803590602001908201803590602001908080601f0160208091040260200160405190810160405280939291908181526020018383808284378201915050505050509190803590602001908201803590602001908080601f0160208091040260200160405190810160405280939291908181526020018383808284378201915050505050509190803590602001908201803590602001908080601f01602080910402602001604051908101604052809392919081815260200183838082843782019150505050505091908035906020019091905050610808565b604051808215151515815260200191505060405180910390f35b341561047f57600080fd5b610586600480803590602001909190803573ffffffffffffffffffffffffffffffffffffffff1690602001909190803590602001908201803590602001908080601f0160208091040260200160405190810160405280939291908181526020018383808284378201915050505050509190803590602001908201803590602001908080601f0160208091040260200160405190810160405280939291908181526020018383808284378201915050505050509190803590602001908201803590602001908080601f0160208091040260200160405190810160405280939291908181526020018383808284378201915050505050509190803590602001909190505061096c565b005b61059e6004808035906020019091905050610a23565b005b34156105ab57600080fd5b6105c16004808035906020019091905050610ac3565b604051808881526020018773ffffffffffffffffffffffffffffffffffffffff1673ffffffffffffffffffffffffffffffffffffffff16815260200180602001806020018681526020018060200185151515158152602001848103845289818151815260200191508051906020019080838360005b83811015610651578082015181840152602081019050610636565b50505050905090810190601f16801561067e5780820380516001836020036101000a031916815260200191505b50848103835288818151815260200191508051906020019080838360005b838110156106b757808201518184015260208101905061069c565b50505050905090810190601f1680156106e45780820380516001836020036101000a031916815260200191505b50848103825286818151815260200191508051906020019080838360005b8381101561071d578082015181840152602081019050610702565b50505050905090810190601f16801561074a5780820380516001836020036101000a031916815260200191505b509a505050505050505050505060405180910390f35b60008054905090565b60026020528060005260406000206000915090508060000154908060010160009054906101000a900473ffffffffffffffffffffffffffffffffffffffff16908060020190806003019080600401549080600501908060060160009054906101000a900460ff16905087565b60008054905090565b6000600160009054906101000a900473ffffffffffffffffffffffffffffffffffffffff16905090565b6000610812610dbc565b600080815480929190600101919050555060e06040519081016040528060005481526020018873ffffffffffffffffffffffffffffffffffffffff1681526020018781526020018681526020018481526020018581526020016000151581525090508060026000805481526020019081526020016000206000820151816000015560208201518160010160006101000a81548173ffffffffffffffffffffffffffffffffffffffff021916908373ffffffffffffffffffffffffffffffffffffffff16021790555060408201518160020190805190602001906108f6929190610e24565b506060820151816003019080519060200190610913929190610e24565b506080820151816004015560a082015181600501908051906020019061093a929190610e24565b5060c08201518160060160006101000a81548160ff021916908315150217905550905050600191505095945050505050565b6000600260008881526020019081526020016000209050858160010160006101000a81548173ffffffffffffffffffffffffffffffffffffffff021916908373ffffffffffffffffffffffffffffffffffffffff160217905550848160020190805190602001906109de929190610ea4565b50838160030190805190602001906109f7929190610ea4565b5081816004018190555082816005019080519060200190610a19929190610ea4565b5050505050505050565b60006002600083815260200190815260200160002090508060010160009054906101000a900473ffffffffffffffffffffffffffffffffffffffff1673ffffffffffffffffffffffffffffffffffffffff166108fc82600401549081150290604051600060405180830381858888f193505050501515610aa257600080fd5b60018160060160006101000a81548160ff0219169083151502179055505050565b600080610ace610f24565b610ad6610f24565b6000610ae0610f24565b6000610aea610dbc565b600260008a815260200190815260200160002060e06040519081016040529081600082015481526020016001820160009054906101000a900473ffffffffffffffffffffffffffffffffffffffff1673ffffffffffffffffffffffffffffffffffffffff1673ffffffffffffffffffffffffffffffffffffffff168152602001600282018054600181600116156101000203166002900480601f016020809104026020016040519081016040528092919081815260200182805460018160011615610100020316600290048015610c025780601f10610bd757610100808354040283529160200191610c02565b820191906000526020600020905b815481529060010190602001808311610be557829003601f168201915b50505050508152602001600382018054600181600116156101000203166002900480601f016020809104026020016040519081016040528092919081815260200182805460018160011615610100020316600290048015610ca45780601f10610c7957610100808354040283529160200191610ca4565b820191906000526020600020905b815481529060010190602001808311610c8757829003601f168201915b5050505050815260200160048201548152602001600582018054600181600116156101000203166002900480601f016020809104026020016040519081016040528092919081815260200182805460018160011615610100020316600290048015610d505780601f10610d2557610100808354040283529160200191610d50565b820191906000526020600020905b815481529060010190602001808311610d3357829003601f168201915b505050505081526020016006820160009054906101000a900460ff1615151515815250509050806000015181602001518260400151836060015184608001518560a001518660c00151849450839350819150975097509750975097509750975050919395979092949650565b60e06040519081016040528060008152602001600073ffffffffffffffffffffffffffffffffffffffff168152602001610df4610f38565b8152602001610e01610f38565b815260200160008152602001610e15610f38565b81526020016000151581525090565b828054600181600116156101000203166002900490600052602060002090601f016020900481019282601f10610e6557805160ff1916838001178555610e93565b82800160010185558215610e93579182015b82811115610e92578251825591602001919060010190610e77565b5b509050610ea09190610f4c565b5090565b828054600181600116156101000203166002900490600052602060002090601f016020900481019282601f10610ee557805160ff1916838001178555610f13565b82800160010185558215610f13579182015b82811115610f12578251825591602001919060010190610ef7565b5b509050610f209190610f4c565b5090565b602060405190810160405280600081525090565b602060405190810160405280600081525090565b610f6e91905b80821115610f6a576000816000905550600101610f52565b5090565b905600a165627a7a72305820bb29ca02fc2fbb35890a669833dd694e04fa23a3116659d51120c0af1af692f00029",
  "source": "pragma solidity ^0.4.4;\n\ncontract Counter{\n   uint serial ;\n   function Counter() public {\n       serial = 0;\n   }\n   function val() public view returns(uint){\n       return serial;\n   }  \n}\n\ncontract SellArt is Counter {\n\n  struct  Art {\n    uint id;\n    address artist;\n    string  name;\n    string  author;\n    uint    price;  \n    string  imageUrl;\n    bool sold;\n  }\n\n  address owner;  \n   mapping (uint =>  Art)  public artworks;\n \n  function SellArt() public {\n    owner = msg.sender;\n  }\n\n  function addArt(address _artist,string _name,string _author,string _imageUrl, uint _price) public  returns (bool)  {\n    serial++;\n    Art memory a =  Art (serial,_artist,_name, _author ,_price, _imageUrl,false);  \n    artworks[serial] = a;  \n    return true;\n  }\n\n  function updateArt(uint id, address _artist,string _name,string _author,string _imageUrl, uint _price) public  {\n    Art storage di = artworks[id];\n    di.artist = _artist;\n    di.name = _name;\n    di.author = _author;\n    di.price = _price;\n    di.imageUrl = _imageUrl;\n  }\n\n  function getArtWorkCount() public constant returns(uint count) {\n    return serial;\n  }\n\n  function getOwner() public view returns (address)  {\n    return owner;\n  }\n\n\n  function getArtWork(uint pos) public view returns ( uint id, address artist, string name, string author, uint price, string imageUrl, bool sold) {\n    Art memory di = artworks[pos];\n    return (di.id,di.artist, di.name, di.author,di.price,di.imageUrl,di.sold);\n  }\n  \n\n  function purchasesArt(uint id) public payable  {\n\n    Art storage a = artworks[id];\n   \n\n    a.artist.transfer(a.price);\n    a.sold=true;\n  }\n}\n",
  "sourcePath": "/home/angel/art-gallery/server/contracts/SellArt.sol",
  "compiler": {
    "name": "solc",
    "version": "0.4.19+commit.c4cbbb05.Emscripten.clang"
  },
  "schemaVersion": "2.0.0",
  "updatedAt": "2018-03-16T15:28:38.706Z"
}