{
  "contractName": "SellArt",
  "abi": [
    {
      "constant": true,
      "inputs": [
        {
          "name": "",
          "type": "uint256"
        }
      ],
      "name": "solds",
      "outputs": [
        {
          "name": "",
          "type": "uint256"
        }
      ],
      "payable": false,
      "stateMutability": "view",
      "type": "function"
    },
    {
      "inputs": [],
      "payable": false,
      "stateMutability": "nonpayable",
      "type": "constructor"
    },
    {
      "constant": false,
      "inputs": [
        {
          "name": "id",
          "type": "uint256"
        },
        {
          "name": "price",
          "type": "uint256"
        }
      ],
      "name": "newArt",
      "outputs": [
        {
          "name": "",
          "type": "bool"
        }
      ],
      "payable": false,
      "stateMutability": "nonpayable",
      "type": "function"
    },
    {
      "constant": true,
      "inputs": [
        {
          "name": "id",
          "type": "uint256"
        }
      ],
      "name": "getBuyer",
      "outputs": [
        {
          "name": "",
          "type": "address"
        }
      ],
      "payable": false,
      "stateMutability": "view",
      "type": "function"
    },
    {
      "constant": true,
      "inputs": [],
      "name": "getOwner",
      "outputs": [
        {
          "name": "",
          "type": "address"
        }
      ],
      "payable": false,
      "stateMutability": "view",
      "type": "function"
    },
    {
      "constant": false,
      "inputs": [
        {
          "name": "id",
          "type": "uint256"
        }
      ],
      "name": "purchasesArt",
      "outputs": [
        {
          "name": "",
          "type": "bool"
        }
      ],
      "payable": true,
      "stateMutability": "payable",
      "type": "function"
    },
    {
      "constant": true,
      "inputs": [],
      "name": "getArtWorks",
      "outputs": [
        {
          "name": "",
          "type": "uint256[]"
        }
      ],
      "payable": false,
      "stateMutability": "view",
      "type": "function"
    }
  ],
  "bytecode": "0x6060604052341561000f57600080fd5b336000806101000a81548173ffffffffffffffffffffffffffffffffffffffff021916908373ffffffffffffffffffffffffffffffffffffffff1602179055506104d58061005e6000396000f300606060405260043610610078576000357c0100000000000000000000000000000000000000000000000000000000900463ffffffff168063382d04121461007d5780635bf608b8146100e75780635c2c64fd1461014a578063893d20e81461018e578063de439f5a146101e3578063ebf8c9ee1461021a575b600080fd5b341561008857600080fd5b61009061024a565b6040518080602001828103825283818151815260200191508051906020019060200280838360005b838110156100d35780820151818401526020810190506100b8565b505050509050019250505060405180910390f35b34156100f257600080fd5b61010860048080359060200190919050506102a8565b604051808273ffffffffffffffffffffffffffffffffffffffff1673ffffffffffffffffffffffffffffffffffffffff16815260200191505060405180910390f35b341561015557600080fd5b61017460048080359060200190919080359060200190919050506102ed565b604051808215151515815260200191505060405180910390f35b341561019957600080fd5b6101a1610369565b604051808273ffffffffffffffffffffffffffffffffffffffff1673ffffffffffffffffffffffffffffffffffffffff16815260200191505060405180910390f35b34156101ee57600080fd5b6102046004808035906020019091905050610392565b6040518082815260200191505060405180910390f35b61023060048080359060200190919050506103b6565b604051808215151515815260200191505060405180910390f35b610252610444565b600280548060200260200160405190810160405280929190818152602001828054801561029e57602002820191906000526020600020905b81548152602001906001019080831161028a575b5050505050905090565b6000806001600084815260200190815260200160002090508060000160009054906101000a900473ffffffffffffffffffffffffffffffffffffffff16915050919050565b6000806001600085815260200190815260200160002060020160009054906101000a900460ff16156103225760009150610362565b60016000858152602001908152602001600020905082816001018190555060018160020160006101000a81548160ff021916908315150217905550600191505b5092915050565b60008060009054906101000a900473ffffffffffffffffffffffffffffffffffffffff16905090565b6002818154811015156103a157fe5b90600052602060002090016000915090505481565b600080600160008481526020019081526020016000209050338160000160006101000a81548173ffffffffffffffffffffffffffffffffffffffff021916908373ffffffffffffffffffffffffffffffffffffffff160217905550600280548060010182816104259190610458565b9160005260206000209001600085909190915055506001915050919050565b602060405190810160405280600081525090565b81548183558181151161047f5781836000526020600020918201910161047e9190610484565b5b505050565b6104a691905b808211156104a257600081600090555060010161048a565b5090565b905600a165627a7a72305820b8dd345669000c5acda4f9b70153d10d66fbfb8c1a50c54bdb304dbdd4bbf0670029",
  "source": "pragma solidity ^0.4.4;\n\n\ncontract SellArt {\n\n  struct  Art {\n    address buyer;\n    uint price;\n    bool exist;\n  }\n\n  address owner;  \n  mapping (uint => Art) artworks;\n  uint[] public solds;\n\n  function SellArt() public {\n    owner = msg.sender;\n  }\n\n  function newArt(uint id,uint price) public  returns (bool)  {\n    if(artworks[id].exist) { \n      return false;\n    }\n    Art storage a = artworks[id];  \n    a.price = price;\n    a.exist = true;\n    return true;\n  }\n\n  function getBuyer(uint id) public view returns (address)  {\n    Art storage a = artworks[id];\n    return a.buyer;\n  }\n\n  function getOwner() public view returns (address)  {\n    return owner;\n  }\n\n\n  function purchasesArt(uint id) public payable returns (bool)  {\n\n    Art storage a = artworks[id];\n\n   \n\n    a.buyer = msg.sender;\n    solds.push(id);\n\n    return true;\n  }\n\n  function getArtWorks() public view returns (uint[]) {\n    return solds;\n  }\n \n}\n",
  "sourcePath": "/home/angel/art-gallery/contracts/SellArt.sol",
  "compiler": {
    "name": "solc",
    "version": "0.4.19+commit.c4cbbb05.Emscripten.clang"
  },
  "schemaVersion": "2.0.0",
  "updatedAt": "2018-03-12T21:54:53.682Z"
}